{
    "_format": "hh-sol-artifact-1",
    "contractName": "Twitter",
    "sourceName": "contracts/Twitter.sol",
    "abi": [
        {
            "inputs": [],
            "stateMutability": "nonpayable",
            "type": "constructor"
        },
        {
            "anonymous": false,
            "inputs": [
                {
                    "indexed": false,
                    "internalType": "uint256",
                    "name": "tweetId",
                    "type": "uint256"
                },
                {
                    "indexed": false,
                    "internalType": "address",
                    "name": "sender",
                    "type": "address"
                },
                {
                    "indexed": false,
                    "internalType": "string",
                    "name": "text",
                    "type": "string"
                }
            ],
            "name": "CreateTweet",
            "type": "event"
        },
        {
            "anonymous": false,
            "inputs": [
                {
                    "indexed": false,
                    "internalType": "uint256",
                    "name": "tweetId",
                    "type": "uint256"
                },
                {
                    "indexed": false,
                    "internalType": "address",
                    "name": "sender",
                    "type": "address"
                }
            ],
            "name": "DeleteTweet",
            "type": "event"
        },
        {
            "anonymous": false,
            "inputs": [
                {
                    "indexed": false,
                    "internalType": "uint256",
                    "name": "tweetId",
                    "type": "uint256"
                },
                {
                    "indexed": false,
                    "internalType": "address",
                    "name": "sender",
                    "type": "address"
                }
            ],
            "name": "LikeTweet",
            "type": "event"
        },
        {
            "inputs": [
                {
                    "internalType": "string",
                    "name": "text",
                    "type": "string"
                },
                {
                    "internalType": "bool",
                    "name": "reply",
                    "type": "bool"
                },
                {
                    "internalType": "uint256",
                    "name": "repliedTo",
                    "type": "uint256"
                }
            ],
            "name": "createTweet",
            "outputs": [
                {
                    "internalType": "uint256",
                    "name": "",
                    "type": "uint256"
                }
            ],
            "stateMutability": "nonpayable",
            "type": "function"
        },
        {
            "inputs": [
                {
                    "internalType": "uint256",
                    "name": "tweetId",
                    "type": "uint256"
                }
            ],
            "name": "deleteTweet",
            "outputs": [
                {
                    "internalType": "bool",
                    "name": "",
                    "type": "bool"
                }
            ],
            "stateMutability": "nonpayable",
            "type": "function"
        },
        {
            "inputs": [
                {
                    "internalType": "uint256",
                    "name": "tweetId",
                    "type": "uint256"
                }
            ],
            "name": "getReplies",
            "outputs": [
                {
                    "internalType": "uint256[]",
                    "name": "",
                    "type": "uint256[]"
                }
            ],
            "stateMutability": "view",
            "type": "function"
        },
        {
            "inputs": [],
            "name": "getTotalTweet",
            "outputs": [
                {
                    "internalType": "uint256",
                    "name": "",
                    "type": "uint256"
                }
            ],
            "stateMutability": "view",
            "type": "function"
        },
        {
            "inputs": [
                {
                    "internalType": "uint256",
                    "name": "tweetId",
                    "type": "uint256"
                }
            ],
            "name": "getTweet",
            "outputs": [
                {
                    "internalType": "uint256",
                    "name": "",
                    "type": "uint256"
                },
                {
                    "internalType": "address",
                    "name": "",
                    "type": "address"
                },
                {
                    "internalType": "uint256[]",
                    "name": "",
                    "type": "uint256[]"
                },
                {
                    "internalType": "uint256",
                    "name": "",
                    "type": "uint256"
                },
                {
                    "internalType": "string",
                    "name": "",
                    "type": "string"
                },
                {
                    "internalType": "uint256",
                    "name": "",
                    "type": "uint256"
                },
                {
                    "internalType": "bool",
                    "name": "",
                    "type": "bool"
                },
                {
                    "internalType": "uint256",
                    "name": "",
                    "type": "uint256"
                }
            ],
            "stateMutability": "view",
            "type": "function"
        },
        {
            "inputs": [],
            "name": "getTweets",
            "outputs": [
                {
                    "components": [
                        {
                            "internalType": "uint256",
                            "name": "tweetId",
                            "type": "uint256"
                        },
                        {
                            "internalType": "address",
                            "name": "owner",
                            "type": "address"
                        },
                        {
                            "internalType": "uint256[]",
                            "name": "replies",
                            "type": "uint256[]"
                        },
                        {
                            "internalType": "uint256",
                            "name": "likes",
                            "type": "uint256"
                        },
                        {
                            "internalType": "string",
                            "name": "text",
                            "type": "string"
                        },
                        {
                            "internalType": "uint256",
                            "name": "createdAt",
                            "type": "uint256"
                        },
                        {
                            "internalType": "bool",
                            "name": "reply",
                            "type": "bool"
                        },
                        {
                            "internalType": "uint256",
                            "name": "repliedTo",
                            "type": "uint256"
                        }
                    ],
                    "internalType": "struct Twitter.Tweet[]",
                    "name": "",
                    "type": "tuple[]"
                }
            ],
            "stateMutability": "view",
            "type": "function"
        }
    ],
    "bytecode": "0x608060405234801561001057600080fd5b5060008081905550611660806100276000396000f3fe608060405234801561001057600080fd5b50600436106100625760003560e01c80635775912a14610067578063ae58449d14610097578063c3ad5ecb146100c7578063c9b5aef2146100fe578063ca1d5e1c1461011c578063fc86741f1461014c575b600080fd5b610081600480360381019061007c9190610a15565b61016a565b60405161008e9190610a5d565b60405180910390f35b6100b160048036038101906100ac9190610a15565b610349565b6040516100be9190610b36565b60405180910390f35b6100e160048036038101906100dc9190610a15565b61040c565b6040516100f5989796959493929190610c38565b60405180910390f35b6101066105d3565b6040516101139190610cc4565b60405180910390f35b61013660048036038101906101319190610e40565b6105e0565b6040516101439190610cc4565b60405180910390f35b61015461076a565b60405161016191906110ff565b60405180910390f35b60008160005481106101b1576040517f08c379a00000000000000000000000000000000000000000000000000000000081526004016101a890611193565b60405180910390fd5b823373ffffffffffffffffffffffffffffffffffffffff16600182815481106101dd576101dc6111b3565b5b906000526020600020906008020160010160009054906101000a900473ffffffffffffffffffffffffffffffffffffffff1673ffffffffffffffffffffffffffffffffffffffff1614610265576040517f08c379a000000000000000000000000000000000000000000000000000000000815260040161025c9061122e565b60405180910390fd5b60018481548110610279576102786111b3565b5b90600052602060002090600802016000808201600090556001820160006101000a81549073ffffffffffffffffffffffffffffffffffffffff02191690556002820160006102c7919061094d565b60038201600090556004820160006102df919061096e565b60058201600090556006820160006101000a81549060ff0219169055600782016000905550507f748d524e5cbba67769cf8984f6ea850f2eb8dbf5c21bfd51f1b15b6aee3b7a55843360405161033692919061124e565b60405180910390a1600192505050919050565b6060816000548110610390576040517f08c379a000000000000000000000000000000000000000000000000000000000815260040161038790611193565b60405180910390fd5b600183815481106103a4576103a36111b3565b5b90600052602060002090600802016002018054806020026020016040519081016040528092919081815260200182805480156103ff57602002820191906000526020600020905b8154815260200190600101908083116103eb575b5050505050915050919050565b600080606060006060600080600088600054811061045f576040517f08c379a000000000000000000000000000000000000000000000000000000000815260040161045690611193565b60405180910390fd5b600060018b81548110610475576104746111b3565b5b9060005260206000209060080201905080600001548160010160009054906101000a900473ffffffffffffffffffffffffffffffffffffffff168260020183600301548460040185600501548660060160009054906101000a900460ff1687600701548580548060200260200160405190810160405280929190818152602001828054801561052357602002820191906000526020600020905b81548152602001906001019080831161050f575b50505050509550838054610536906112a6565b80601f0160208091040260200160405190810160405280929190818152602001828054610562906112a6565b80156105af5780601f10610584576101008083540402835291602001916105af565b820191906000526020600020905b81548152906001019060200180831161059257829003601f168201915b50505050509350995099509950995099509950995099505050919395975091939597565b6000600180549050905090565b6000806001808160018154018082558091505003906000526020600020906008020190506000548160000181905550338160010160006101000a81548173ffffffffffffffffffffffffffffffffffffffff021916908373ffffffffffffffffffffffffffffffffffffffff160217905550848160040190816106639190611483565b50428160050181905550838160060160006101000a81548160ff021916908315150217905550828160070181905550600115158415151480156106a7575060008310155b156106fb57600183815481106106c0576106bf6111b3565b5b906000526020600020906008020160020160005490806001815401808255809150506001900390600052602060002001600090919091909150555b7f3729bb6884f87e90c1c64cfaeaefd5f094835de27023a885d0714ec3305a2386600054338760405161073093929190611555565b60405180910390a1600160008082825461074a91906115c2565b92505081905550600160005461076091906115f6565b9150509392505050565b60606001805480602002602001604051908101604052809291908181526020016000905b82821015610944578382906000526020600020906008020160405180610100016040529081600082015481526020016001820160009054906101000a900473ffffffffffffffffffffffffffffffffffffffff1673ffffffffffffffffffffffffffffffffffffffff1673ffffffffffffffffffffffffffffffffffffffff1681526020016002820180548060200260200160405190810160405280929190818152602001828054801561086157602002820191906000526020600020905b81548152602001906001019080831161084d575b5050505050815260200160038201548152602001600482018054610884906112a6565b80601f01602080910402602001604051908101604052809291908181526020018280546108b0906112a6565b80156108fd5780601f106108d2576101008083540402835291602001916108fd565b820191906000526020600020905b8154815290600101906020018083116108e057829003601f168201915b50505050508152602001600582015481526020016006820160009054906101000a900460ff161515151581526020016007820154815250508152602001906001019061078e565b50505050905090565b508054600082559060005260206000209081019061096b91906109ae565b50565b50805461097a906112a6565b6000825580601f1061098c57506109ab565b601f0160209004906000526020600020908101906109aa91906109ae565b5b50565b5b808211156109c75760008160009055506001016109af565b5090565b6000604051905090565b600080fd5b600080fd5b6000819050919050565b6109f2816109df565b81146109fd57600080fd5b50565b600081359050610a0f816109e9565b92915050565b600060208284031215610a2b57610a2a6109d5565b5b6000610a3984828501610a00565b91505092915050565b60008115159050919050565b610a5781610a42565b82525050565b6000602082019050610a726000830184610a4e565b92915050565b600081519050919050565b600082825260208201905092915050565b6000819050602082019050919050565b610aad816109df565b82525050565b6000610abf8383610aa4565b60208301905092915050565b6000602082019050919050565b6000610ae382610a78565b610aed8185610a83565b9350610af883610a94565b8060005b83811015610b29578151610b108882610ab3565b9750610b1b83610acb565b925050600181019050610afc565b5085935050505092915050565b60006020820190508181036000830152610b508184610ad8565b905092915050565b610b61816109df565b82525050565b600073ffffffffffffffffffffffffffffffffffffffff82169050919050565b6000610b9282610b67565b9050919050565b610ba281610b87565b82525050565b600081519050919050565b600082825260208201905092915050565b60005b83811015610be2578082015181840152602081019050610bc7565b60008484015250505050565b6000601f19601f8301169050919050565b6000610c0a82610ba8565b610c148185610bb3565b9350610c24818560208601610bc4565b610c2d81610bee565b840191505092915050565b600061010082019050610c4e600083018b610b58565b610c5b602083018a610b99565b8181036040830152610c6d8189610ad8565b9050610c7c6060830188610b58565b8181036080830152610c8e8187610bff565b9050610c9d60a0830186610b58565b610caa60c0830185610a4e565b610cb760e0830184610b58565b9998505050505050505050565b6000602082019050610cd96000830184610b58565b92915050565b600080fd5b600080fd5b7f4e487b7100000000000000000000000000000000000000000000000000000000600052604160045260246000fd5b610d2182610bee565b810181811067ffffffffffffffff82111715610d4057610d3f610ce9565b5b80604052505050565b6000610d536109cb565b9050610d5f8282610d18565b919050565b600067ffffffffffffffff821115610d7f57610d7e610ce9565b5b610d8882610bee565b9050602081019050919050565b82818337600083830152505050565b6000610db7610db284610d64565b610d49565b905082815260208101848484011115610dd357610dd2610ce4565b5b610dde848285610d95565b509392505050565b600082601f830112610dfb57610dfa610cdf565b5b8135610e0b848260208601610da4565b91505092915050565b610e1d81610a42565b8114610e2857600080fd5b50565b600081359050610e3a81610e14565b92915050565b600080600060608486031215610e5957610e586109d5565b5b600084013567ffffffffffffffff811115610e7757610e766109da565b5b610e8386828701610de6565b9350506020610e9486828701610e2b565b9250506040610ea586828701610a00565b9150509250925092565b600081519050919050565b600082825260208201905092915050565b6000819050602082019050919050565b610ee481610b87565b82525050565b600082825260208201905092915050565b6000610f0682610a78565b610f108185610eea565b9350610f1b83610a94565b8060005b83811015610f4c578151610f338882610ab3565b9750610f3e83610acb565b925050600181019050610f1f565b5085935050505092915050565b600082825260208201905092915050565b6000610f7582610ba8565b610f7f8185610f59565b9350610f8f818560208601610bc4565b610f9881610bee565b840191505092915050565b610fac81610a42565b82525050565b600061010083016000830151610fcb6000860182610aa4565b506020830151610fde6020860182610edb565b5060408301518482036040860152610ff68282610efb565b915050606083015161100b6060860182610aa4565b50608083015184820360808601526110238282610f6a565b91505060a083015161103860a0860182610aa4565b5060c083015161104b60c0860182610fa3565b5060e083015161105e60e0860182610aa4565b508091505092915050565b60006110758383610fb2565b905092915050565b6000602082019050919050565b600061109582610eaf565b61109f8185610eba565b9350836020820285016110b185610ecb565b8060005b858110156110ed57848403895281516110ce8582611069565b94506110d98361107d565b925060208a019950506001810190506110b5565b50829750879550505050505092915050565b60006020820190508181036000830152611119818461108a565b905092915050565b7f5468652073706563696669656420747765657420646f65736e2774206578697360008201527f7400000000000000000000000000000000000000000000000000000000000000602082015250565b600061117d602183610bb3565b915061118882611121565b604082019050919050565b600060208201905081810360008301526111ac81611170565b9050919050565b7f4e487b7100000000000000000000000000000000000000000000000000000000600052603260045260246000fd5b7f4e6f7420616c6c6f776564000000000000000000000000000000000000000000600082015250565b6000611218600b83610bb3565b9150611223826111e2565b602082019050919050565b600060208201905081810360008301526112478161120b565b9050919050565b60006040820190506112636000830185610b58565b6112706020830184610b99565b9392505050565b7f4e487b7100000000000000000000000000000000000000000000000000000000600052602260045260246000fd5b600060028204905060018216806112be57607f821691505b6020821081036112d1576112d0611277565b5b50919050565b60008190508160005260206000209050919050565b60006020601f8301049050919050565b600082821b905092915050565b6000600883026113397fffffffffffffffffffffffffffffffffffffffffffffffffffffffffffffffff826112fc565b61134386836112fc565b95508019841693508086168417925050509392505050565b6000819050919050565b600061138061137b611376846109df565b61135b565b6109df565b9050919050565b6000819050919050565b61139a83611365565b6113ae6113a682611387565b848454611309565b825550505050565b600090565b6113c36113b6565b6113ce818484611391565b505050565b5b818110156113f2576113e76000826113bb565b6001810190506113d4565b5050565b601f82111561143757611408816112d7565b611411846112ec565b81016020851015611420578190505b61143461142c856112ec565b8301826113d3565b50505b505050565b600082821c905092915050565b600061145a6000198460080261143c565b1980831691505092915050565b60006114738383611449565b9150826002028217905092915050565b61148c82610ba8565b67ffffffffffffffff8111156114a5576114a4610ce9565b5b6114af82546112a6565b6114ba8282856113f6565b600060209050601f8311600181146114ed57600084156114db578287015190505b6114e58582611467565b86555061154d565b601f1984166114fb866112d7565b60005b82811015611523578489015182556001820191506020850194506020810190506114fe565b86831015611540578489015161153c601f891682611449565b8355505b6001600288020188555050505b505050505050565b600060608201905061156a6000830186610b58565b6115776020830185610b99565b81810360408301526115898184610bff565b9050949350505050565b7f4e487b7100000000000000000000000000000000000000000000000000000000600052601160045260246000fd5b60006115cd826109df565b91506115d8836109df565b92508282019050808211156115f0576115ef611593565b5b92915050565b6000611601826109df565b915061160c836109df565b925082820390508181111561162457611623611593565b5b9291505056fea26469706673582212206339061a4f1c71731feab328e30b825cb8b1bee87516b361a466401e880b13f264736f6c63430008110033",
    "linkReferences": {},
    "deployedLinkReferences": {}
}